{
  "contractName": "NFTMe",
  "abi": [
    {
      "inputs": [],
      "stateMutability": "nonpayable",
      "type": "constructor"
    },
    {
      "anonymous": false,
      "inputs": [
        {
          "indexed": true,
          "internalType": "address",
          "name": "owner",
          "type": "address"
        },
        {
          "indexed": true,
          "internalType": "address",
          "name": "approved",
          "type": "address"
        },
        {
          "indexed": true,
          "internalType": "uint256",
          "name": "tokenId",
          "type": "uint256"
        }
      ],
      "name": "Approval",
      "type": "event"
    },
    {
      "anonymous": false,
      "inputs": [
        {
          "indexed": true,
          "internalType": "address",
          "name": "owner",
          "type": "address"
        },
        {
          "indexed": true,
          "internalType": "address",
          "name": "operator",
          "type": "address"
        },
        {
          "indexed": false,
          "internalType": "bool",
          "name": "approved",
          "type": "bool"
        }
      ],
      "name": "ApprovalForAll",
      "type": "event"
    },
    {
      "anonymous": false,
      "inputs": [
        {
          "indexed": true,
          "internalType": "address",
          "name": "previousOwner",
          "type": "address"
        },
        {
          "indexed": true,
          "internalType": "address",
          "name": "newOwner",
          "type": "address"
        }
      ],
      "name": "OwnershipTransferred",
      "type": "event"
    },
    {
      "anonymous": false,
      "inputs": [
        {
          "indexed": true,
          "internalType": "address",
          "name": "from",
          "type": "address"
        },
        {
          "indexed": true,
          "internalType": "address",
          "name": "to",
          "type": "address"
        },
        {
          "indexed": true,
          "internalType": "uint256",
          "name": "tokenId",
          "type": "uint256"
        }
      ],
      "name": "Transfer",
      "type": "event"
    },
    {
      "inputs": [
        {
          "internalType": "address",
          "name": "to",
          "type": "address"
        },
        {
          "internalType": "uint256",
          "name": "tokenId",
          "type": "uint256"
        }
      ],
      "name": "approve",
      "outputs": [],
      "stateMutability": "nonpayable",
      "type": "function"
    },
    {
      "inputs": [
        {
          "internalType": "address",
          "name": "owner",
          "type": "address"
        }
      ],
      "name": "balanceOf",
      "outputs": [
        {
          "internalType": "uint256",
          "name": "",
          "type": "uint256"
        }
      ],
      "stateMutability": "view",
      "type": "function",
      "constant": true
    },
    {
      "inputs": [
        {
          "internalType": "uint256",
          "name": "tokenId",
          "type": "uint256"
        }
      ],
      "name": "burn",
      "outputs": [],
      "stateMutability": "nonpayable",
      "type": "function"
    },
    {
      "inputs": [
        {
          "internalType": "uint256",
          "name": "tokenId",
          "type": "uint256"
        }
      ],
      "name": "getApproved",
      "outputs": [
        {
          "internalType": "address",
          "name": "",
          "type": "address"
        }
      ],
      "stateMutability": "view",
      "type": "function",
      "constant": true
    },
    {
      "inputs": [
        {
          "internalType": "address",
          "name": "owner",
          "type": "address"
        },
        {
          "internalType": "address",
          "name": "operator",
          "type": "address"
        }
      ],
      "name": "isApprovedForAll",
      "outputs": [
        {
          "internalType": "bool",
          "name": "",
          "type": "bool"
        }
      ],
      "stateMutability": "view",
      "type": "function",
      "constant": true
    },
    {
      "inputs": [],
      "name": "name",
      "outputs": [
        {
          "internalType": "string",
          "name": "",
          "type": "string"
        }
      ],
      "stateMutability": "view",
      "type": "function",
      "constant": true
    },
    {
      "inputs": [],
      "name": "owner",
      "outputs": [
        {
          "internalType": "address",
          "name": "",
          "type": "address"
        }
      ],
      "stateMutability": "view",
      "type": "function",
      "constant": true
    },
    {
      "inputs": [
        {
          "internalType": "uint256",
          "name": "tokenId",
          "type": "uint256"
        }
      ],
      "name": "ownerOf",
      "outputs": [
        {
          "internalType": "address",
          "name": "",
          "type": "address"
        }
      ],
      "stateMutability": "view",
      "type": "function",
      "constant": true
    },
    {
      "inputs": [],
      "name": "renounceOwnership",
      "outputs": [],
      "stateMutability": "nonpayable",
      "type": "function"
    },
    {
      "inputs": [
        {
          "internalType": "address",
          "name": "from",
          "type": "address"
        },
        {
          "internalType": "address",
          "name": "to",
          "type": "address"
        },
        {
          "internalType": "uint256",
          "name": "tokenId",
          "type": "uint256"
        }
      ],
      "name": "safeTransferFrom",
      "outputs": [],
      "stateMutability": "nonpayable",
      "type": "function"
    },
    {
      "inputs": [
        {
          "internalType": "address",
          "name": "from",
          "type": "address"
        },
        {
          "internalType": "address",
          "name": "to",
          "type": "address"
        },
        {
          "internalType": "uint256",
          "name": "tokenId",
          "type": "uint256"
        },
        {
          "internalType": "bytes",
          "name": "_data",
          "type": "bytes"
        }
      ],
      "name": "safeTransferFrom",
      "outputs": [],
      "stateMutability": "nonpayable",
      "type": "function"
    },
    {
      "inputs": [
        {
          "internalType": "address",
          "name": "operator",
          "type": "address"
        },
        {
          "internalType": "bool",
          "name": "approved",
          "type": "bool"
        }
      ],
      "name": "setApprovalForAll",
      "outputs": [],
      "stateMutability": "nonpayable",
      "type": "function"
    },
    {
      "inputs": [],
      "name": "symbol",
      "outputs": [
        {
          "internalType": "string",
          "name": "",
          "type": "string"
        }
      ],
      "stateMutability": "view",
      "type": "function",
      "constant": true
    },
    {
      "inputs": [
        {
          "internalType": "uint256",
          "name": "index",
          "type": "uint256"
        }
      ],
      "name": "tokenByIndex",
      "outputs": [
        {
          "internalType": "uint256",
          "name": "",
          "type": "uint256"
        }
      ],
      "stateMutability": "view",
      "type": "function",
      "constant": true
    },
    {
      "inputs": [
        {
          "internalType": "address",
          "name": "owner",
          "type": "address"
        },
        {
          "internalType": "uint256",
          "name": "index",
          "type": "uint256"
        }
      ],
      "name": "tokenOfOwnerByIndex",
      "outputs": [
        {
          "internalType": "uint256",
          "name": "",
          "type": "uint256"
        }
      ],
      "stateMutability": "view",
      "type": "function",
      "constant": true
    },
    {
      "inputs": [],
      "name": "totalSupply",
      "outputs": [
        {
          "internalType": "uint256",
          "name": "",
          "type": "uint256"
        }
      ],
      "stateMutability": "view",
      "type": "function",
      "constant": true
    },
    {
      "inputs": [
        {
          "internalType": "address",
          "name": "from",
          "type": "address"
        },
        {
          "internalType": "address",
          "name": "to",
          "type": "address"
        },
        {
          "internalType": "uint256",
          "name": "tokenId",
          "type": "uint256"
        }
      ],
      "name": "transferFrom",
      "outputs": [],
      "stateMutability": "nonpayable",
      "type": "function"
    },
    {
      "inputs": [
        {
          "internalType": "address",
          "name": "newOwner",
          "type": "address"
        }
      ],
      "name": "transferOwnership",
      "outputs": [],
      "stateMutability": "nonpayable",
      "type": "function"
    },
    {
      "inputs": [
        {
          "internalType": "string",
          "name": "uri",
          "type": "string"
        }
      ],
      "name": "mint",
      "outputs": [],
      "stateMutability": "nonpayable",
      "type": "function"
    },
    {
      "inputs": [
        {
          "internalType": "uint256",
          "name": "tokenId",
          "type": "uint256"
        }
      ],
      "name": "tokenURI",
      "outputs": [
        {
          "internalType": "string",
          "name": "",
          "type": "string"
        }
      ],
      "stateMutability": "view",
      "type": "function",
      "constant": true
    },
    {
      "inputs": [
        {
          "internalType": "bytes4",
          "name": "interfaceId",
          "type": "bytes4"
        }
      ],
      "name": "supportsInterface",
      "outputs": [
        {
          "internalType": "bool",
          "name": "",
          "type": "bool"
        }
      ],
      "stateMutability": "view",
      "type": "function",
      "constant": true
    }
  ],
  "bytecode": "0x60806040523480156200001157600080fd5b506040518060400160405280600681526020017f4e46542d4d6500000000000000000000000000000000000000000000000000008152506040518060400160405280600581526020017f4e46544d65000000000000000000000000000000000000000000000000000000815250816000908051906020019062000096929190620001a6565b508060019080519060200190620000af929190620001a6565b505050620000d2620000c6620000d860201b60201c565b620000e060201b60201c565b620002ba565b600033905090565b6000600b60009054906101000a900473ffffffffffffffffffffffffffffffffffffffff16905081600b60006101000a81548173ffffffffffffffffffffffffffffffffffffffff021916908373ffffffffffffffffffffffffffffffffffffffff1602179055508173ffffffffffffffffffffffffffffffffffffffff168173ffffffffffffffffffffffffffffffffffffffff167f8be0079c531659141344cd1fd0a4f28419497f9722a3daafe3b4186f6b6457e060405160405180910390a35050565b828054620001b49062000285565b90600052602060002090601f016020900481019282620001d8576000855562000224565b82601f10620001f357805160ff191683800117855562000224565b8280016001018555821562000224579182015b828111156200022357825182559160200191906001019062000206565b5b50905062000233919062000237565b5090565b5b808211156200025257600081600090555060010162000238565b5090565b7f4e487b7100000000000000000000000000000000000000000000000000000000600052602260045260246000fd5b600060028204905060018216806200029e57607f821691505b602082108103620002b457620002b362000256565b5b50919050565b613a7f80620002ca6000396000f3fe608060405234801561001057600080fd5b50600436106101375760003560e01c80636352211e116100b8578063a22cb4651161007c578063a22cb4651461034e578063b88d4fde1461036a578063c87b56dd14610386578063d85d3d27146103b6578063e985e9c5146103d2578063f2fde38b1461040257610137565b80636352211e146102a857806370a08231146102d8578063715018a6146103085780638da5cb5b1461031257806395d89b411461033057610137565b806323b872dd116100ff57806323b872dd146101f45780632f745c591461021057806342842e0e1461024057806342966c681461025c5780634f6ccce71461027857610137565b806301ffc9a71461013c57806306fdde031461016c578063081812fc1461018a578063095ea7b3146101ba57806318160ddd146101d6575b600080fd5b61015660048036038101906101519190612513565b61041e565b604051610163919061255b565b60405180910390f35b610174610430565b604051610181919061260f565b60405180910390f35b6101a4600480360381019061019f9190612667565b6104c2565b6040516101b191906126d5565b60405180910390f35b6101d460048036038101906101cf919061271c565b610547565b005b6101de61065e565b6040516101eb919061276b565b60405180910390f35b61020e60048036038101906102099190612786565b61066b565b005b61022a6004803603810190610225919061271c565b6106cb565b604051610237919061276b565b60405180910390f35b61025a60048036038101906102559190612786565b610770565b005b61027660048036038101906102719190612667565b610790565b005b610292600480360381019061028d9190612667565b6107ec565b60405161029f919061276b565b60405180910390f35b6102c260048036038101906102bd9190612667565b61085d565b6040516102cf91906126d5565b60405180910390f35b6102f260048036038101906102ed91906127d9565b61090e565b6040516102ff919061276b565b60405180910390f35b6103106109c5565b005b61031a610a4d565b60405161032791906126d5565b60405180910390f35b610338610a77565b604051610345919061260f565b60405180910390f35b61036860048036038101906103639190612832565b610b09565b005b610384600480360381019061037f91906129a7565b610b1f565b005b6103a0600480360381019061039b9190612667565b610b81565b6040516103ad919061260f565b60405180910390f35b6103d060048036038101906103cb9190612acb565b610b93565b005b6103ec60048036038101906103e79190612b14565b610bc3565b6040516103f9919061255b565b60405180910390f35b61041c600480360381019061041791906127d9565b610c57565b005b600061042982610d4e565b9050919050565b60606000805461043f90612b83565b80601f016020809104026020016040519081016040528092919081815260200182805461046b90612b83565b80156104b85780601f1061048d576101008083540402835291602001916104b8565b820191906000526020600020905b81548152906001019060200180831161049b57829003601f168201915b5050505050905090565b60006104cd82610dc8565b61050c576040517f08c379a000000000000000000000000000000000000000000000000000000000815260040161050390612c26565b60405180910390fd5b6004600083815260200190815260200160002060009054906101000a900473ffffffffffffffffffffffffffffffffffffffff169050919050565b60006105528261085d565b90508073ffffffffffffffffffffffffffffffffffffffff168373ffffffffffffffffffffffffffffffffffffffff16036105c2576040517f08c379a00000000000000000000000000000000000000000000000000000000081526004016105b990612cb8565b60405180910390fd5b8073ffffffffffffffffffffffffffffffffffffffff166105e1610e34565b73ffffffffffffffffffffffffffffffffffffffff161480610610575061060f8161060a610e34565b610bc3565b5b61064f576040517f08c379a000000000000000000000000000000000000000000000000000000000815260040161064690612d4a565b60405180910390fd5b6106598383610e3c565b505050565b6000600880549050905090565b61067c610676610e34565b82610ef5565b6106bb576040517f08c379a00000000000000000000000000000000000000000000000000000000081526004016106b290612ddc565b60405180910390fd5b6106c6838383610fd3565b505050565b60006106d68361090e565b8210610717576040517f08c379a000000000000000000000000000000000000000000000000000000000815260040161070e90612e6e565b60405180910390fd5b600660008473ffffffffffffffffffffffffffffffffffffffff1673ffffffffffffffffffffffffffffffffffffffff168152602001908152602001600020600083815260200190815260200160002054905092915050565b61078b83838360405180602001604052806000815250610b1f565b505050565b6107a161079b610e34565b82610ef5565b6107e0576040517f08c379a00000000000000000000000000000000000000000000000000000000081526004016107d790612f00565b60405180910390fd5b6107e981611239565b50565b60006107f661065e565b8210610837576040517f08c379a000000000000000000000000000000000000000000000000000000000815260040161082e90612f92565b60405180910390fd5b6008828154811061084b5761084a612fb2565b5b90600052602060002001549050919050565b6000806002600084815260200190815260200160002060009054906101000a900473ffffffffffffffffffffffffffffffffffffffff169050600073ffffffffffffffffffffffffffffffffffffffff168173ffffffffffffffffffffffffffffffffffffffff1603610905576040517f08c379a00000000000000000000000000000000000000000000000000000000081526004016108fc90613053565b60405180910390fd5b80915050919050565b60008073ffffffffffffffffffffffffffffffffffffffff168273ffffffffffffffffffffffffffffffffffffffff160361097e576040517f08c379a0000000000000000000000000000000000000000000000000000000008152600401610975906130e5565b60405180910390fd5b600360008373ffffffffffffffffffffffffffffffffffffffff1673ffffffffffffffffffffffffffffffffffffffff168152602001908152602001600020549050919050565b6109cd610e34565b73ffffffffffffffffffffffffffffffffffffffff166109eb610a4d565b73ffffffffffffffffffffffffffffffffffffffff1614610a41576040517f08c379a0000000000000000000000000000000000000000000000000000000008152600401610a3890613151565b60405180910390fd5b610a4b6000611245565b565b6000600b60009054906101000a900473ffffffffffffffffffffffffffffffffffffffff16905090565b606060018054610a8690612b83565b80601f0160208091040260200160405190810160405280929190818152602001828054610ab290612b83565b8015610aff5780601f10610ad457610100808354040283529160200191610aff565b820191906000526020600020905b815481529060010190602001808311610ae257829003601f168201915b5050505050905090565b610b1b610b14610e34565b838361130b565b5050565b610b30610b2a610e34565b83610ef5565b610b6f576040517f08c379a0000000000000000000000000000000000000000000000000000000008152600401610b6690612ddc565b60405180910390fd5b610b7b84848484611477565b50505050565b6060610b8c826114d3565b9050919050565b610b9d600c611624565b6000610ba9600c61163a565b9050610bb53382611648565b610bbf8183611666565b5050565b6000600560008473ffffffffffffffffffffffffffffffffffffffff1673ffffffffffffffffffffffffffffffffffffffff16815260200190815260200160002060008373ffffffffffffffffffffffffffffffffffffffff1673ffffffffffffffffffffffffffffffffffffffff16815260200190815260200160002060009054906101000a900460ff16905092915050565b610c5f610e34565b73ffffffffffffffffffffffffffffffffffffffff16610c7d610a4d565b73ffffffffffffffffffffffffffffffffffffffff1614610cd3576040517f08c379a0000000000000000000000000000000000000000000000000000000008152600401610cca90613151565b60405180910390fd5b600073ffffffffffffffffffffffffffffffffffffffff168173ffffffffffffffffffffffffffffffffffffffff1603610d42576040517f08c379a0000000000000000000000000000000000000000000000000000000008152600401610d39906131e3565b60405180910390fd5b610d4b81611245565b50565b60007f780e9d63000000000000000000000000000000000000000000000000000000007bffffffffffffffffffffffffffffffffffffffffffffffffffffffff1916827bffffffffffffffffffffffffffffffffffffffffffffffffffffffff19161480610dc15750610dc0826116da565b5b9050919050565b60008073ffffffffffffffffffffffffffffffffffffffff166002600084815260200190815260200160002060009054906101000a900473ffffffffffffffffffffffffffffffffffffffff1673ffffffffffffffffffffffffffffffffffffffff1614159050919050565b600033905090565b816004600083815260200190815260200160002060006101000a81548173ffffffffffffffffffffffffffffffffffffffff021916908373ffffffffffffffffffffffffffffffffffffffff160217905550808273ffffffffffffffffffffffffffffffffffffffff16610eaf8361085d565b73ffffffffffffffffffffffffffffffffffffffff167f8c5be1e5ebec7d5bd14f71427d1e84f3dd0314c0f7b2291e5b200ac8c7c3b92560405160405180910390a45050565b6000610f0082610dc8565b610f3f576040517f08c379a0000000000000000000000000000000000000000000000000000000008152600401610f3690613275565b60405180910390fd5b6000610f4a8361085d565b90508073ffffffffffffffffffffffffffffffffffffffff168473ffffffffffffffffffffffffffffffffffffffff161480610fb957508373ffffffffffffffffffffffffffffffffffffffff16610fa1846104c2565b73ffffffffffffffffffffffffffffffffffffffff16145b80610fca5750610fc98185610bc3565b5b91505092915050565b8273ffffffffffffffffffffffffffffffffffffffff16610ff38261085d565b73ffffffffffffffffffffffffffffffffffffffff1614611049576040517f08c379a000000000000000000000000000000000000000000000000000000000815260040161104090613307565b60405180910390fd5b600073ffffffffffffffffffffffffffffffffffffffff168273ffffffffffffffffffffffffffffffffffffffff16036110b8576040517f08c379a00000000000000000000000000000000000000000000000000000000081526004016110af90613399565b60405180910390fd5b6110c38383836117bc565b6110ce600082610e3c565b6001600360008573ffffffffffffffffffffffffffffffffffffffff1673ffffffffffffffffffffffffffffffffffffffff168152602001908152602001600020600082825461111e91906133e8565b925050819055506001600360008473ffffffffffffffffffffffffffffffffffffffff1673ffffffffffffffffffffffffffffffffffffffff1681526020019081526020016000206000828254611175919061341c565b92505081905550816002600083815260200190815260200160002060006101000a81548173ffffffffffffffffffffffffffffffffffffffff021916908373ffffffffffffffffffffffffffffffffffffffff160217905550808273ffffffffffffffffffffffffffffffffffffffff168473ffffffffffffffffffffffffffffffffffffffff167fddf252ad1be2c89b69c2b068fc378daa952ba7f163c4a11628f55a4df523b3ef60405160405180910390a46112348383836117cc565b505050565b611242816117d1565b50565b6000600b60009054906101000a900473ffffffffffffffffffffffffffffffffffffffff16905081600b60006101000a81548173ffffffffffffffffffffffffffffffffffffffff021916908373ffffffffffffffffffffffffffffffffffffffff1602179055508173ffffffffffffffffffffffffffffffffffffffff168173ffffffffffffffffffffffffffffffffffffffff167f8be0079c531659141344cd1fd0a4f28419497f9722a3daafe3b4186f6b6457e060405160405180910390a35050565b8173ffffffffffffffffffffffffffffffffffffffff168373ffffffffffffffffffffffffffffffffffffffff1603611379576040517f08c379a0000000000000000000000000000000000000000000000000000000008152600401611370906134be565b60405180910390fd5b80600560008573ffffffffffffffffffffffffffffffffffffffff1673ffffffffffffffffffffffffffffffffffffffff16815260200190815260200160002060008473ffffffffffffffffffffffffffffffffffffffff1673ffffffffffffffffffffffffffffffffffffffff16815260200190815260200160002060006101000a81548160ff0219169083151502179055508173ffffffffffffffffffffffffffffffffffffffff168373ffffffffffffffffffffffffffffffffffffffff167f17307eab39ab6107e8899845ad3d59bd9653f200f220920489ca2b5937696c318360405161146a919061255b565b60405180910390a3505050565b611482848484610fd3565b61148e84848484611824565b6114cd576040517f08c379a00000000000000000000000000000000000000000000000000000000081526004016114c490613550565b60405180910390fd5b50505050565b60606114de82610dc8565b61151d576040517f08c379a0000000000000000000000000000000000000000000000000000000008152600401611514906135e2565b60405180910390fd5b6000600a6000848152602001908152602001600020805461153d90612b83565b80601f016020809104026020016040519081016040528092919081815260200182805461156990612b83565b80156115b65780601f1061158b576101008083540402835291602001916115b6565b820191906000526020600020905b81548152906001019060200180831161159957829003601f168201915b5050505050905060006115c76119ab565b905060008151036115dc57819250505061161f565b6000825111156116115780826040516020016115f992919061363e565b6040516020818303038152906040529250505061161f565b61161a846119c2565b925050505b919050565b6001816000016000828254019250508190555050565b600081600001549050919050565b611662828260405180602001604052806000815250611a69565b5050565b61166f82610dc8565b6116ae576040517f08c379a00000000000000000000000000000000000000000000000000000000081526004016116a5906136d4565b60405180910390fd5b80600a600084815260200190815260200160002090805190602001906116d59291906123c4565b505050565b60007f80ac58cd000000000000000000000000000000000000000000000000000000007bffffffffffffffffffffffffffffffffffffffffffffffffffffffff1916827bffffffffffffffffffffffffffffffffffffffffffffffffffffffff191614806117a557507f5b5e139f000000000000000000000000000000000000000000000000000000007bffffffffffffffffffffffffffffffffffffffffffffffffffffffff1916827bffffffffffffffffffffffffffffffffffffffffffffffffffffffff1916145b806117b557506117b482611ac4565b5b9050919050565b6117c7838383611b2e565b505050565b505050565b6117da81611c40565b6000600a600083815260200190815260200160002080546117fa90612b83565b90501461182157600a60008281526020019081526020016000206000611820919061244a565b5b50565b60006118458473ffffffffffffffffffffffffffffffffffffffff16611d5d565b1561199e578373ffffffffffffffffffffffffffffffffffffffff1663150b7a0261186e610e34565b8786866040518563ffffffff1660e01b81526004016118909493929190613749565b6020604051808303816000875af19250505080156118cc57506040513d601f19601f820116820180604052508101906118c991906137aa565b60015b61194e573d80600081146118fc576040519150601f19603f3d011682016040523d82523d6000602084013e611901565b606091505b506000815103611946576040517f08c379a000000000000000000000000000000000000000000000000000000000815260040161193d90613550565b60405180910390fd5b805181602001fd5b63150b7a0260e01b7bffffffffffffffffffffffffffffffffffffffffffffffffffffffff1916817bffffffffffffffffffffffffffffffffffffffffffffffffffffffff1916149150506119a3565b600190505b949350505050565b606060405180602001604052806000815250905090565b60606119cd82610dc8565b611a0c576040517f08c379a0000000000000000000000000000000000000000000000000000000008152600401611a0390613849565b60405180910390fd5b6000611a166119ab565b90506000815111611a365760405180602001604052806000815250611a61565b80611a4084611d80565b604051602001611a5192919061363e565b6040516020818303038152906040525b915050919050565b611a738383611ee0565b611a806000848484611824565b611abf576040517f08c379a0000000000000000000000000000000000000000000000000000000008152600401611ab690613550565b60405180910390fd5b505050565b60007f01ffc9a7000000000000000000000000000000000000000000000000000000007bffffffffffffffffffffffffffffffffffffffffffffffffffffffff1916827bffffffffffffffffffffffffffffffffffffffffffffffffffffffff1916149050919050565b611b398383836120b9565b600073ffffffffffffffffffffffffffffffffffffffff168373ffffffffffffffffffffffffffffffffffffffff1603611b7b57611b76816120be565b611bba565b8173ffffffffffffffffffffffffffffffffffffffff168373ffffffffffffffffffffffffffffffffffffffff1614611bb957611bb88382612107565b5b5b600073ffffffffffffffffffffffffffffffffffffffff168273ffffffffffffffffffffffffffffffffffffffff1603611bfc57611bf781612274565b611c3b565b8273ffffffffffffffffffffffffffffffffffffffff168273ffffffffffffffffffffffffffffffffffffffff1614611c3a57611c398282612345565b5b5b505050565b6000611c4b8261085d565b9050611c59816000846117bc565b611c64600083610e3c565b6001600360008373ffffffffffffffffffffffffffffffffffffffff1673ffffffffffffffffffffffffffffffffffffffff1681526020019081526020016000206000828254611cb491906133e8565b925050819055506002600083815260200190815260200160002060006101000a81549073ffffffffffffffffffffffffffffffffffffffff021916905581600073ffffffffffffffffffffffffffffffffffffffff168273ffffffffffffffffffffffffffffffffffffffff167fddf252ad1be2c89b69c2b068fc378daa952ba7f163c4a11628f55a4df523b3ef60405160405180910390a4611d59816000846117cc565b5050565b6000808273ffffffffffffffffffffffffffffffffffffffff163b119050919050565b606060008203611dc7576040518060400160405280600181526020017f30000000000000000000000000000000000000000000000000000000000000008152509050611edb565b600082905060005b60008214611df9578080611de290613869565b915050600a82611df291906138e0565b9150611dcf565b60008167ffffffffffffffff811115611e1557611e1461287c565b5b6040519080825280601f01601f191660200182016040528015611e475781602001600182028036833780820191505090505b5090505b60008514611ed457600182611e6091906133e8565b9150600a85611e6f9190613911565b6030611e7b919061341c565b60f81b818381518110611e9157611e90612fb2565b5b60200101907effffffffffffffffffffffffffffffffffffffffffffffffffffffffffffff1916908160001a905350600a85611ecd91906138e0565b9450611e4b565b8093505050505b919050565b600073ffffffffffffffffffffffffffffffffffffffff168273ffffffffffffffffffffffffffffffffffffffff1603611f4f576040517f08c379a0000000000000000000000000000000000000000000000000000000008152600401611f469061398e565b60405180910390fd5b611f5881610dc8565b15611f98576040517f08c379a0000000000000000000000000000000000000000000000000000000008152600401611f8f906139fa565b60405180910390fd5b611fa4600083836117bc565b6001600360008473ffffffffffffffffffffffffffffffffffffffff1673ffffffffffffffffffffffffffffffffffffffff1681526020019081526020016000206000828254611ff4919061341c565b92505081905550816002600083815260200190815260200160002060006101000a81548173ffffffffffffffffffffffffffffffffffffffff021916908373ffffffffffffffffffffffffffffffffffffffff160217905550808273ffffffffffffffffffffffffffffffffffffffff16600073ffffffffffffffffffffffffffffffffffffffff167fddf252ad1be2c89b69c2b068fc378daa952ba7f163c4a11628f55a4df523b3ef60405160405180910390a46120b5600083836117cc565b5050565b505050565b6008805490506009600083815260200190815260200160002081905550600881908060018154018082558091505060019003906000526020600020016000909190919091505550565b600060016121148461090e565b61211e91906133e8565b9050600060076000848152602001908152602001600020549050818114612203576000600660008673ffffffffffffffffffffffffffffffffffffffff1673ffffffffffffffffffffffffffffffffffffffff168152602001908152602001600020600084815260200190815260200160002054905080600660008773ffffffffffffffffffffffffffffffffffffffff1673ffffffffffffffffffffffffffffffffffffffff168152602001908152602001600020600084815260200190815260200160002081905550816007600083815260200190815260200160002081905550505b6007600084815260200190815260200160002060009055600660008573ffffffffffffffffffffffffffffffffffffffff1673ffffffffffffffffffffffffffffffffffffffff16815260200190815260200160002060008381526020019081526020016000206000905550505050565b6000600160088054905061228891906133e8565b90506000600960008481526020019081526020016000205490506000600883815481106122b8576122b7612fb2565b5b9060005260206000200154905080600883815481106122da576122d9612fb2565b5b90600052602060002001819055508160096000838152602001908152602001600020819055506009600085815260200190815260200160002060009055600880548061232957612328613a1a565b5b6001900381819060005260206000200160009055905550505050565b60006123508361090e565b905081600660008573ffffffffffffffffffffffffffffffffffffffff1673ffffffffffffffffffffffffffffffffffffffff168152602001908152602001600020600083815260200190815260200160002081905550806007600084815260200190815260200160002081905550505050565b8280546123d090612b83565b90600052602060002090601f0160209004810192826123f25760008555612439565b82601f1061240b57805160ff1916838001178555612439565b82800160010185558215612439579182015b8281111561243857825182559160200191906001019061241d565b5b509050612446919061248a565b5090565b50805461245690612b83565b6000825580601f106124685750612487565b601f016020900490600052602060002090810190612486919061248a565b5b50565b5b808211156124a357600081600090555060010161248b565b5090565b6000604051905090565b600080fd5b600080fd5b60007fffffffff0000000000000000000000000000000000000000000000000000000082169050919050565b6124f0816124bb565b81146124fb57600080fd5b50565b60008135905061250d816124e7565b92915050565b600060208284031215612529576125286124b1565b5b6000612537848285016124fe565b91505092915050565b60008115159050919050565b61255581612540565b82525050565b6000602082019050612570600083018461254c565b92915050565b600081519050919050565b600082825260208201905092915050565b60005b838110156125b0578082015181840152602081019050612595565b838111156125bf576000848401525b50505050565b6000601f19601f8301169050919050565b60006125e182612576565b6125eb8185612581565b93506125fb818560208601612592565b612604816125c5565b840191505092915050565b6000602082019050818103600083015261262981846125d6565b905092915050565b6000819050919050565b61264481612631565b811461264f57600080fd5b50565b6000813590506126618161263b565b92915050565b60006020828403121561267d5761267c6124b1565b5b600061268b84828501612652565b91505092915050565b600073ffffffffffffffffffffffffffffffffffffffff82169050919050565b60006126bf82612694565b9050919050565b6126cf816126b4565b82525050565b60006020820190506126ea60008301846126c6565b92915050565b6126f9816126b4565b811461270457600080fd5b50565b600081359050612716816126f0565b92915050565b60008060408385031215612733576127326124b1565b5b600061274185828601612707565b925050602061275285828601612652565b9150509250929050565b61276581612631565b82525050565b6000602082019050612780600083018461275c565b92915050565b60008060006060848603121561279f5761279e6124b1565b5b60006127ad86828701612707565b93505060206127be86828701612707565b92505060406127cf86828701612652565b9150509250925092565b6000602082840312156127ef576127ee6124b1565b5b60006127fd84828501612707565b91505092915050565b61280f81612540565b811461281a57600080fd5b50565b60008135905061282c81612806565b92915050565b60008060408385031215612849576128486124b1565b5b600061285785828601612707565b92505060206128688582860161281d565b9150509250929050565b600080fd5b600080fd5b7f4e487b7100000000000000000000000000000000000000000000000000000000600052604160045260246000fd5b6128b4826125c5565b810181811067ffffffffffffffff821117156128d3576128d261287c565b5b80604052505050565b60006128e66124a7565b90506128f282826128ab565b919050565b600067ffffffffffffffff8211156129125761291161287c565b5b61291b826125c5565b9050602081019050919050565b82818337600083830152505050565b600061294a612945846128f7565b6128dc565b90508281526020810184848401111561296657612965612877565b5b612971848285612928565b509392505050565b600082601f83011261298e5761298d612872565b5b813561299e848260208601612937565b91505092915050565b600080600080608085870312156129c1576129c06124b1565b5b60006129cf87828801612707565b94505060206129e087828801612707565b93505060406129f187828801612652565b925050606085013567ffffffffffffffff811115612a1257612a116124b6565b5b612a1e87828801612979565b91505092959194509250565b600067ffffffffffffffff821115612a4557612a4461287c565b5b612a4e826125c5565b9050602081019050919050565b6000612a6e612a6984612a2a565b6128dc565b905082815260208101848484011115612a8a57612a89612877565b5b612a95848285612928565b509392505050565b600082601f830112612ab257612ab1612872565b5b8135612ac2848260208601612a5b565b91505092915050565b600060208284031215612ae157612ae06124b1565b5b600082013567ffffffffffffffff811115612aff57612afe6124b6565b5b612b0b84828501612a9d565b91505092915050565b60008060408385031215612b2b57612b2a6124b1565b5b6000612b3985828601612707565b9250506020612b4a85828601612707565b9150509250929050565b7f4e487b7100000000000000000000000000000000000000000000000000000000600052602260045260246000fd5b60006002820490506001821680612b9b57607f821691505b602082108103612bae57612bad612b54565b5b50919050565b7f4552433732313a20617070726f76656420717565727920666f72206e6f6e657860008201527f697374656e7420746f6b656e0000000000000000000000000000000000000000602082015250565b6000612c10602c83612581565b9150612c1b82612bb4565b604082019050919050565b60006020820190508181036000830152612c3f81612c03565b9050919050565b7f4552433732313a20617070726f76616c20746f2063757272656e74206f776e6560008201527f7200000000000000000000000000000000000000000000000000000000000000602082015250565b6000612ca2602183612581565b9150612cad82612c46565b604082019050919050565b60006020820190508181036000830152612cd181612c95565b9050919050565b7f4552433732313a20617070726f76652063616c6c6572206973206e6f74206f7760008201527f6e6572206e6f7220617070726f76656420666f7220616c6c0000000000000000602082015250565b6000612d34603883612581565b9150612d3f82612cd8565b604082019050919050565b60006020820190508181036000830152612d6381612d27565b9050919050565b7f4552433732313a207472616e736665722063616c6c6572206973206e6f74206f60008201527f776e6572206e6f7220617070726f766564000000000000000000000000000000602082015250565b6000612dc6603183612581565b9150612dd182612d6a565b604082019050919050565b60006020820190508181036000830152612df581612db9565b9050919050565b7f455243373231456e756d657261626c653a206f776e657220696e646578206f7560008201527f74206f6620626f756e6473000000000000000000000000000000000000000000602082015250565b6000612e58602b83612581565b9150612e6382612dfc565b604082019050919050565b60006020820190508181036000830152612e8781612e4b565b9050919050565b7f4552433732314275726e61626c653a2063616c6c6572206973206e6f74206f7760008201527f6e6572206e6f7220617070726f76656400000000000000000000000000000000602082015250565b6000612eea603083612581565b9150612ef582612e8e565b604082019050919050565b60006020820190508181036000830152612f1981612edd565b9050919050565b7f455243373231456e756d657261626c653a20676c6f62616c20696e646578206f60008201527f7574206f6620626f756e64730000000000000000000000000000000000000000602082015250565b6000612f7c602c83612581565b9150612f8782612f20565b604082019050919050565b60006020820190508181036000830152612fab81612f6f565b9050919050565b7f4e487b7100000000000000000000000000000000000000000000000000000000600052603260045260246000fd5b7f4552433732313a206f776e657220717565727920666f72206e6f6e657869737460008201527f656e7420746f6b656e0000000000000000000000000000000000000000000000602082015250565b600061303d602983612581565b915061304882612fe1565b604082019050919050565b6000602082019050818103600083015261306c81613030565b9050919050565b7f4552433732313a2062616c616e636520717565727920666f7220746865207a6560008201527f726f206164647265737300000000000000000000000000000000000000000000602082015250565b60006130cf602a83612581565b91506130da82613073565b604082019050919050565b600060208201905081810360008301526130fe816130c2565b9050919050565b7f4f776e61626c653a2063616c6c6572206973206e6f7420746865206f776e6572600082015250565b600061313b602083612581565b915061314682613105565b602082019050919050565b6000602082019050818103600083015261316a8161312e565b9050919050565b7f4f776e61626c653a206e6577206f776e657220697320746865207a65726f206160008201527f6464726573730000000000000000000000000000000000000000000000000000602082015250565b60006131cd602683612581565b91506131d882613171565b604082019050919050565b600060208201905081810360008301526131fc816131c0565b9050919050565b7f4552433732313a206f70657261746f7220717565727920666f72206e6f6e657860008201527f697374656e7420746f6b656e0000000000000000000000000000000000000000602082015250565b600061325f602c83612581565b915061326a82613203565b604082019050919050565b6000602082019050818103600083015261328e81613252565b9050919050565b7f4552433732313a207472616e736665722066726f6d20696e636f72726563742060008201527f6f776e6572000000000000000000000000000000000000000000000000000000602082015250565b60006132f1602583612581565b91506132fc82613295565b604082019050919050565b60006020820190508181036000830152613320816132e4565b9050919050565b7f4552433732313a207472616e7366657220746f20746865207a65726f2061646460008201527f7265737300000000000000000000000000000000000000000000000000000000602082015250565b6000613383602483612581565b915061338e82613327565b604082019050919050565b600060208201905081810360008301526133b281613376565b9050919050565b7f4e487b7100000000000000000000000000000000000000000000000000000000600052601160045260246000fd5b60006133f382612631565b91506133fe83612631565b925082821015613411576134106133b9565b5b828203905092915050565b600061342782612631565b915061343283612631565b9250827fffffffffffffffffffffffffffffffffffffffffffffffffffffffffffffffff03821115613467576134666133b9565b5b828201905092915050565b7f4552433732313a20617070726f766520746f2063616c6c657200000000000000600082015250565b60006134a8601983612581565b91506134b382613472565b602082019050919050565b600060208201905081810360008301526134d78161349b565b9050919050565b7f4552433732313a207472616e7366657220746f206e6f6e20455243373231526560008201527f63656976657220696d706c656d656e7465720000000000000000000000000000602082015250565b600061353a603283612581565b9150613545826134de565b604082019050919050565b600060208201905081810360008301526135698161352d565b9050919050565b7f45524337323155524953746f726167653a2055524920717565727920666f722060008201527f6e6f6e6578697374656e7420746f6b656e000000000000000000000000000000602082015250565b60006135cc603183612581565b91506135d782613570565b604082019050919050565b600060208201905081810360008301526135fb816135bf565b9050919050565b600081905092915050565b600061361882612576565b6136228185613602565b9350613632818560208601612592565b80840191505092915050565b600061364a828561360d565b9150613656828461360d565b91508190509392505050565b7f45524337323155524953746f726167653a2055524920736574206f66206e6f6e60008201527f6578697374656e7420746f6b656e000000000000000000000000000000000000602082015250565b60006136be602e83612581565b91506136c982613662565b604082019050919050565b600060208201905081810360008301526136ed816136b1565b9050919050565b600081519050919050565b600082825260208201905092915050565b600061371b826136f4565b61372581856136ff565b9350613735818560208601612592565b61373e816125c5565b840191505092915050565b600060808201905061375e60008301876126c6565b61376b60208301866126c6565b613778604083018561275c565b818103606083015261378a8184613710565b905095945050505050565b6000815190506137a4816124e7565b92915050565b6000602082840312156137c0576137bf6124b1565b5b60006137ce84828501613795565b91505092915050565b7f4552433732314d657461646174613a2055524920717565727920666f72206e6f60008201527f6e6578697374656e7420746f6b656e0000000000000000000000000000000000602082015250565b6000613833602f83612581565b915061383e826137d7565b604082019050919050565b6000602082019050818103600083015261386281613826565b9050919050565b600061387482612631565b91507fffffffffffffffffffffffffffffffffffffffffffffffffffffffffffffffff82036138a6576138a56133b9565b5b600182019050919050565b7f4e487b7100000000000000000000000000000000000000000000000000000000600052601260045260246000fd5b60006138eb82612631565b91506138f683612631565b925082613906576139056138b1565b5b828204905092915050565b600061391c82612631565b915061392783612631565b925082613937576139366138b1565b5b828206905092915050565b7f4552433732313a206d696e7420746f20746865207a65726f2061646472657373600082015250565b6000613978602083612581565b915061398382613942565b602082019050919050565b600060208201905081810360008301526139a78161396b565b9050919050565b7f4552433732313a20746f6b656e20616c7265616479206d696e74656400000000600082015250565b60006139e4601c83612581565b91506139ef826139ae565b602082019050919050565b60006020820190508181036000830152613a13816139d7565b9050919050565b7f4e487b7100000000000000000000000000000000000000000000000000000000600052603160045260246000fdfea26469706673582212206c8730c583d73725f3be1a1d613afe0c65dbfd8303f62c33fd7807a27cf43bb864736f6c634300080d0033",
  "immutableReferences": {},
  "source": "// SPDX-License-Identifier: MIT\npragma solidity ^0.8.9;\n\nimport \"@openzeppelin/contracts/token/ERC721/ERC721.sol\";\nimport \"@openzeppelin/contracts/token/ERC721/extensions/ERC721Enumerable.sol\";\nimport \"@openzeppelin/contracts/token/ERC721/extensions/ERC721URIStorage.sol\";\nimport \"@openzeppelin/contracts/token/ERC721/extensions/ERC721Burnable.sol\";\nimport \"@openzeppelin/contracts/access/Ownable.sol\";\nimport \"@openzeppelin/contracts/utils/Counters.sol\";\n\ncontract NFTMe is ERC721, ERC721Enumerable, ERC721URIStorage, ERC721Burnable, Ownable {\n    using Counters for Counters.Counter;\n\n    Counters.Counter private _tokenIdCounter;\n\n    constructor() ERC721(\"NFT-Me\", \"NFTMe\") {}\n\n    function mint(string memory uri) \n        public \n    {\n        _tokenIdCounter.increment();\n        uint256 tokenId = _tokenIdCounter.current();\n        _safeMint(msg.sender, tokenId);\n        _setTokenURI(tokenId, uri);\n    }\n\n    // The following functions are overrides required by Solidity.\n\n    function _beforeTokenTransfer(address from, address to, uint256 tokenId)\n        internal\n        override(ERC721, ERC721Enumerable)\n    {\n        super._beforeTokenTransfer(from, to, tokenId);\n    }\n\n    function _burn(uint256 tokenId) internal override(ERC721, ERC721URIStorage) {\n        super._burn(tokenId);\n    }\n\n    function tokenURI(uint256 tokenId)\n        public\n        view\n        override(ERC721, ERC721URIStorage)\n        returns (string memory)\n    {\n        return super.tokenURI(tokenId);\n    }\n\n    function supportsInterface(bytes4 interfaceId)\n        public\n        view\n        override(ERC721, ERC721Enumerable)\n        returns (bool)\n    {\n        return super.supportsInterface(interfaceId);\n    }\n}",
  "sourcePath": "/Users/rhammell/Desktop/nft-me/Truffle/contracts/NFTMe.sol",
  "compiler": {
    "name": "solc",
    "version": "0.8.13+commit.abaa5c0e.Emscripten.clang"
  },
  "schemaVersion": "3.4.6",
  "updatedAt": "2022-08-21T22:56:57.551Z",
  "networkType": "ethereum",
  "devdoc": {
    "kind": "dev",
    "methods": {
      "approve(address,uint256)": {
        "details": "See {IERC721-approve}."
      },
      "balanceOf(address)": {
        "details": "See {IERC721-balanceOf}."
      },
      "burn(uint256)": {
        "details": "Burns `tokenId`. See {ERC721-_burn}. Requirements: - The caller must own `tokenId` or be an approved operator."
      },
      "getApproved(uint256)": {
        "details": "See {IERC721-getApproved}."
      },
      "isApprovedForAll(address,address)": {
        "details": "See {IERC721-isApprovedForAll}."
      },
      "name()": {
        "details": "See {IERC721Metadata-name}."
      },
      "owner()": {
        "details": "Returns the address of the current owner."
      },
      "ownerOf(uint256)": {
        "details": "See {IERC721-ownerOf}."
      },
      "renounceOwnership()": {
        "details": "Leaves the contract without owner. It will not be possible to call `onlyOwner` functions anymore. Can only be called by the current owner. NOTE: Renouncing ownership will leave the contract without an owner, thereby removing any functionality that is only available to the owner."
      },
      "safeTransferFrom(address,address,uint256)": {
        "details": "See {IERC721-safeTransferFrom}."
      },
      "safeTransferFrom(address,address,uint256,bytes)": {
        "details": "See {IERC721-safeTransferFrom}."
      },
      "setApprovalForAll(address,bool)": {
        "details": "See {IERC721-setApprovalForAll}."
      },
      "symbol()": {
        "details": "See {IERC721Metadata-symbol}."
      },
      "tokenByIndex(uint256)": {
        "details": "See {IERC721Enumerable-tokenByIndex}."
      },
      "tokenOfOwnerByIndex(address,uint256)": {
        "details": "See {IERC721Enumerable-tokenOfOwnerByIndex}."
      },
      "totalSupply()": {
        "details": "See {IERC721Enumerable-totalSupply}."
      },
      "transferFrom(address,address,uint256)": {
        "details": "See {IERC721-transferFrom}."
      },
      "transferOwnership(address)": {
        "details": "Transfers ownership of the contract to a new account (`newOwner`). Can only be called by the current owner."
      }
    },
    "version": 1
  },
  "userdoc": {
    "kind": "user",
    "methods": {},
    "version": 1
  }
}